:020000040800F2
:10000000E02100205DC20108CDC10108D1C1010875
:10001000A70B0000000000000000FFFF54000008D4
:1000200004030300000000000000000000000000C6
:1000300000000000000000000000000000000000C0
:10004000000000000000000000000000E7000000C9
:1000500000000000E02100205DC20108CDC10108C0
:10006000D1C10108A70A080100010008040303AC7C
:100070000056E70000000000000000000000000043
:100080000000000000000000000000000000000070
:10009000000000000000000000000000FFFFFFFF64
:1000A000FFFFFFFFFFFFFFFF00E00208000000006E
:1000B00000000000FFFFFFFFFFFFFFFFFFFFFFFF4C
:1000C000FFFFFFFFFFFFFFFFFFFFFFFFFFFFFFFF40
:1000D000FFFFFFFFF02F002000000000F02F0020A6
:1000E000F02F0020E0210020E4CF010840C40108E7
:1000F00080180020CC0D00200000030800300020F4
:10010000E02100205DC20108CDC10108D1C1010874
:10011000D9C10108D5C10108DDC1010858C20108D3
:1001200058C2010858C2010858C2010858C2010843
:10013000E1C1010858C2010858C20108E11C0008C9
:1001400095C1010858C201080751000858C20108AA
:100150005D5B00080D4F000858C2010858C2010835
:100160003B410008E7120008510D0008910100080A
:1001700058C20108175000085F5000080522000807
:10018000A19F000858C2010858C2010859C20108BD
:1001900070B52B482B4942780B685B0724D5032A9E
:1001A00022DA838800EB4204A3810123847803FAD6
:1001B00002F222438270244C027892B1002522FA86
:1001C00005F6F60708D54570AB405A40027000EBC3
:1001D0004500808A206007E06D1CEDB2032DEEDB48
:1001E00002E02260032242704FF6FF700860BFF306
:1001F0005F8F70BD12480021017000220321417001
:100200000021C1700521018100218170001D0E496E
:100210000A604A604FF400428A601022CA60486156
:10022000012088610320C8600421064801644FF65C
:10023000FF7101604FF400600449086000F044B8A9
:10024000E823002010A8004004D0004000E100E0B6
:10025000DFF8E03433F810001040C840704730B584
:100260000FF29054DFF8D03434F810409C60114005
:10027000DFF8C04434F8105095432943D960022276
:100280001A6000221A6024F8101058680028FCD167
:1002900030BDDFF8A824DFF8A8041278DFF8A41432
:1002A0000AB149780EE0895611F1090FB8BF302123
:1002B00008DBC16D39B1C26D40F24A31B1FBF2F1D8
:1002C00089B2C91E01607047E0B5DFF87C0401887F
:1002D0000A2300F064F8BDF806104FF6FF720D20F7
:1002E000FFF7BDFF07BDF8B50546B5F5004FDFF8D0
:1002F000544419D1DFF854040188022300F04FF868
:10030000BDF80000000AFF2814BF00281820607004
:10031000BDF800000006C00E10281CBF001D00F034
:1003200098F9BDF80000C543DFF81064707808B193
:10033000002005E0A089ADB26840C00701D50120CA
:100340007070DFF80C04A58105F00104016841F428
:1003500000410160C5F340070FF2BC4000EB4400D0
:100360004FF440524078010389B20220FFF777FF33
:10037000204600F053FA4022B90100F005FA2D069C
:10038000A80E00F0010038433070FFF782FF70784C
:1003900018B1FFF799FF002070700020F2BD7F2296
:1003A00000A800F0B1BA2DE9F04FDFF8AC43207897
:1003B00087B0042304900C210B38C0B2039000A82E
:1003C000039A00F019FB9DF800008DF80A009DF8D3
:1003D00001008DF809009DF802008DF808009DF8D5
:1003E00003008DF80500DFF874030078012804D1BC
:1003F0006078451EAD41ED0F00E0012500F080FD65
:1004000083469DF902000399D24F0BF10A0AABF122
:100410000A065045B6BF86424FF001084FF000086B
:1004200001208840ADF806009DF80100000604D4C4
:100430007888BDF80610084201D04FF0010800F09E
:10044000F3FD9DF8030000060AD4B888BDF8061035
:10045000084205D19DF900005045B8BF864202DB35
:100460004FF0010901E04FF0000948EA050059EAA0
:10047000000000F09E80DFF8E8A2BA49DAF8000038
:1004800000F002008DF80400B748006800F4E06056
:1004900005904FF4E0600860002001F0C4F901F01D
:1004A00037FCB24EADB1607858B1DAF80000AB4914
:1004B00040084000CAF800000120087001F008FD63
:1004C00007E0306840F400503060306820F480501D
:1004D0003060A248007801280DD101F023FEDAF83F
:1004E00000009E4940F00100CAF80000002008709A
:1004F000642001F0EDFC2DB1607818B90498C0B209
:1005000001F0C5FE607838B1306820F4805030606A
:10051000306840F400503060BDF80600C543B8F1C3
:10052000000F08D001F09EFF8DF801008DF802B099
:10053000788828407880B9F1000F08D002F043F89D
:100540008DF803008DF800B0B8882840B8809DF978
:1005500000009DF90A10884202BF9DF801009DF835
:10056000091088420BD19DF902009DF908108842BC
:1005700002BF9DF803009DF80510884206D003993C
:10058000042300AAC9B20C2000F047FA0598764966
:10059000086000F079FA9DF8040001F044F902F0D7
:1005A00032F9607828B148F260703060642001F060
:1005B0008FFC9DF8010001F0C1FE9DF8030001F0E1
:1005C000FDFF07B0BDE8F08F80B500F08CFCBDE802
:1005D0000140E8E600F087BC70B50646A6F10B04C2
:1005E00001F082F80546A6F10B00102801D38A20FD
:1005F00070BD5F488168090702D40068C00701D553
:100600008C2070BD544806705A4801680C290FD0E0
:100610000FF27811584A92F90020A4B231F8241050
:100620005118C161FFF7BFFE012D08BF00F0EDFFBB
:10063000002070BD10B5044600F055FC2046BDE812
:100640001040C9E74448007870473E4890F90000E0
:1006500070472DE9F041044614F12B0F86B045DBBD
:10066000464801881423FFF79AFEBDF810004FF6A4
:10067000FF71884203D0400448BF012606D43F22C0
:1006800000211020FFF7E4FD0546002604F12B02AF
:100690002F2A2C483A491AD213220FF2301300E0C5
:1006A000521ED2B213F91270BC42F9DB03EB4204C2
:1006B000032764780C60002413F8121001700020E6
:1006C0008046AEB1BDF810104FF6BF7229E0092C7C
:1006D0000CDA225C0A60047014232A480188FFF7B0
:1006E0005EFE01240320A0462827EAE78B201DE0B8
:1006F000C1024FF4605200F047F84FF4E06221026B
:1007000000F042F880224FEAC81100F03DF885F071
:1007100020003D18ADB2402DA8BF3F253F2285F0F7
:10072000200100F031F8FFF7B4FD002006B0BDE86D
:10073000F0810000942B0020E8100040C22F002020
:100740006410004034230020CACD0108D4CD010834
:100750001C100040AA2E00203023002098230020E7
:100760008020004080E100E000E100E0D010004087
:1007700060200040AC100040C12F0020C6CD010811
:10078000C0100040C8CD01080B2068E5AA2129004F
:100790005523290000252800AA26270055282700D0
:1007A000002A2600AA2B2600552D2500002F240004
:1007B000AA3024005532230000342200AA3522003A
:1007C0005537210000392000AA3A2000D500E60163
:1007D000EC02EF03F204F405F506F707F808F9094F
:1007E000FA0AFB0BFC0DFD0FFE11FF130016011999
:1007F000021C031F100011002000300040004100C7
:1008000050006000700080009000A000B000C000A8
:10081000D000E000F000000000000103F0B5044645
:1008200089B0002001F0ECFA264801880A237F22D3
:1008300000A800F069F8BDF802004FF6FF75A84265
:1008400004D1DC210FF2940002F016F80FF2A40795
:10085000002601E02A4616B94FF47C4203E0022E3E
:1008600008BF4EF23F0200A800F032F8761C052EB9
:10087000F0D3012C03D114237F22134802E0142368
:100880007F221248018803A800F03EF800260FF2EC
:100890006C072A4608E02A46012E08BF4FF6C072B0
:1008A00002D0082E08BF002203A800F011F8761C21
:1008B0000A2EF0D3012C04BF012001F0A1FA09B0E7
:1008C000F0BD0000CACD0108C8CD0108C6CD0108A1
:1008D00030F81610F05DFFF7C2BC0000616E616C6D
:1008E0006F6775652D63656C6C2D626961732E632E
:1008F0000000000000100C0D0E00000001020304B7
:100900000708090A0B0F000030B50446104683B0F3
:100910007F2808BF0020B1F5004F1AD108237F229D
:1009200040F6120100A8FFF7EFFF08220FF238018E
:1009300000A802F0E9F830B908237F2240F2A27142
:1009400000A8FFF7E1FF082200A9204602F092F874
:1009500037BD044D294300FB03111A46204602F01F
:1009600089F837BD00000408FFFFFFFFFFFFFFFF0E
:1009700030B50FF20811DFF8FC500A6883B001A807
:100980000024026001202870002002F0DDF830B160
:10099000002002F0D9F810B12C7049203EBDDFF8DC
:1009A000D800018802237F220DF1020000F024F814
:1009B00002237F22002100A800F01EF8204601A992
:1009C000BDF8022031F81010914208BF0124401CEC
:1009D0000228F4D3BDF8000024B1B0F57F7F07D121
:1009E00000203EBDB0F57F7F0CBF0620042000E054
:1009F0000720002129703EBD10B5FF2908DCDFF873
:100A00007440247844B1BDE81040C9B202F0A8BBDC
:100A1000BDE81040FFF778BF10BD2DE9F041054655
:100A20000E46174698460FF25800FF2D13DCDFF8EC
:100A300044402178A1B1617811B1C02101F01CFFBF
:100A400001206070434632463946E8B202F0F2FCBB
:100A50000020607004E0CB21BDE8F04101F00CBF44
:100A6000BDE8F08103490978002918BF02F0E5BD0F
:100A700070470000BE2F0020D2CD0108FE01FD020C
:100A8000746F6B656E2E630010B5DFF84045102063
:100A9000206302F087FEDFF838150A6842F0010291
:100AA0000A6002F085FEDFF82C0500F108016160A4
:100AB0002160923061688931616001212163E060C9
:100AC000A060DFF81415E0688930E0600220206340
:100AD0004FF6FF70086010BDDFF8000545F26401B5
:100AE000C1601E21416250210162C821C16181653E
:100AF000F021C16545F69001416688218166062195
:100B0000C16644F2066101604FF6FF714160DFF893
:100B1000D004007838B1DFF8CC0448F2607101608D
:100B20004FF4C1514160DFF8C004016841F0040195
:100B300001600020DFF8B414487070472DE9F84FC9
:100B4000DFF890148A2202FB001202F10806721CE0
:100B500004275378127802EB03221FFA82F808F474
:100B60004062B2F5006F044608F4404B08BF082706
:100B700003D0B2F5406F08BF0E27BBF1000F04D0C1
:100B80005FEA48625CBFBF1CFFB2DFF864241278E2
:100B90004A704018009000200099887008F02700E3
:100BA00023285ED1DFF84C54686E000659D5B81979
:100BB000BBF5404F4FF480694FF4006A03D102F057
:100BC00048FE014616E0BBF5004F40D14078B95DC4
:100BD00001EB002080B203F0C9F80021FF2808D003
:100BE000DFF81424126832F810004FF4FE6210424D
:100BF00000D0012159B35FEA08701AD4BBF5004F49
:100C000008BFBF1C03D0BBF5404F01D10837FFB26E
:100C10007808002C14BF69682968814217D3002C1A
:100C200014BF69682968421C9142F8D3B85D042852
:100C30000DD1E86DC00606D400F015F803D0686C3D
:100C400040F00100686401200099887009E0E86DB7
:100C5000C00606D500F007F803D0686C40084000D5
:100C60006864BDE8F18FA86C04B1D14610EA090FA1
:100C700070472DE9F04E0446DFF85863DFF87453EF
:100C80008A2000FB046000F1080B002C0CBF2868D0
:100C90006868C1B2052903DA7068401C706055E0CD
:100CA00040005FFA80F909EB0B00A0F108073878E3
:100CB000797801EB00201FFA80FA7078387003F021
:100CC00024F97870CD4FF86B20F48050F863686E8B
:100CD00014B93868400504D4012C1FD138680005C8
:100CE0001CD5C748017889B1002101701AF4E45F6E
:100CF000C448016802D00022402005E09BF80100B2
:100D0000000900F001028F2003F07DF9002C0CBFD8
:100D10004FF480604FF40060386012E01AF4E45F32
:100D20000FD100F07DFD10B15FEA4A4009D59BF874
:100D30000000802805DAA01949468278584603F059
:100D400027FA002C0CBF012002202861BDE8F08E9C
:100D50002DE9F84FA04CA74E2068216CDFF8A8A21F
:100D6000DFF89C82DFF86C92A84F01EA00051AE0D8
:100D700040B14878C00605D4A248016800228F20FF
:100D800003F041F9280605D503F096F9802025F0F7
:100D900080052060E80506D503F08EF94FF48070D9
:100DA00025F480752060002D68D0280706D5002026
:100DB000FFF7C4FE082025F008052060E80606D5E8
:100DC0000120FFF7BBFE102025F01005206005F084
:100DD0006000602803D1B06CC0050AD401E0A80609
:100DE00005D52020206025F02005002006E06806BB
:100DF00006D54020206025F040050120FFF739FF8F
:100E0000E80410D54FF48050206025F48055D7F8C1
:100E100000B0082038607868000548BF00F03CF951
:100E20001FFA8BF03860E807ACD5012020606D0810
:100E300099F800006D000028A4D000F06AFC012899
:100E4000A0D198F8000000289CD09AF8000004284F
:100E500098D1F068400800F001008A2101FB009160
:100E60000831002814BF7268326812B92268D204AF
:100E7000F7D5002814BF7068306879E7002020603B
:100E8000BDE8F18F624800687047F0B504460D4632
:100E900089B00021032001F05FFC04AE1BE00027B5
:100EA00001F075FC26F8170001F071FC00A921F88B
:100EB00017007F1C082FF3DB04A803F00BFB0020B6
:100EC0002080218836F810205140401C08282180BD
:100ED000F7DB6D1EA41CEDB2002DE0D101F093FCF8
:100EE000012009B0F0BD0321022001F035BC4FF60E
:100EF000FF71081A292190FBF1F03A3040B2704797
:100F000038B501F044FCFFF7F2FF424D0446287863
:100F1000B0B90321032001F01FFC3F4801880223E0
:100F20007F2200A8FFF7F0FC01F031FCBDF80010B3
:100F3000401880B2FFF7DBFF153868700120287079
:100F400001F061FC6878201A40B232BD80B50321FF
:100F5000022001F001FCBDE80140D1E770B52F4847
:100F60000078002490B9FFF7F1FF204E0546707815
:100F700048B13078401B40B203F0BDFA0B2805DBC6
:100F80003570012402E0012035707070204670BD7C
:100F900023480078704722490A78904200D1704770
:100FA00080B5087040B11F490020086008480168FA
:100FB00021F08001016001BD00F069FC00F03FFC00
:100FC00000F0F1FBBDE8024000F0D5BB002000407E
:100FD00084200040482C002000A000404C1000401D
:100FE00031230020D010004080200040D72F002067
:100FF00030230020202000402C22002004A00040AC
:10100000882D0020902D002097230020B82000403C
:1010100038200040D52F0020D0CD01089823002093
:10102000D92F00205410004010B50D48018884B01D
:101030000A237F2200A8FFF767FCBDF800004FF6E7
:10104000FF74A04204D14E210FF2180001F014FCED
:10105000BDF8001022460020FFF701F91FBD000077
:10106000CACD0108616E616C6F6775652D66696C2C
:101070007465722E63000000DFF81C08007848B128
:10108000DFF818080179012904BF4079042801D14B
:101090000120704700207047DFF80408016821F440
:1010A00080510160DFF8FC07017881B100210170F7
:1010B000DFF8F4170A68520852000A600A6842F022
:1010C00001020A6000228168402002F09CBF704744
:1010D0000FF66C014008405C7047010603D54FF6DF
:1010E0007F710840C0007047491C800189B2B0FB85
:1010F000F1F080B2FF288CBF0020C0F1FF00C0B229
:10110000704738B5DFF89C07C178012901D100206C
:1011100032BDDFF89C47617871B1E17840794518BC
:101120002079ADB2854228BF054603F0FDF90121C3
:10113000A940491E084000E0002061790818C0B2AB
:1011400032BD2DE9F0470446C00705D540F27111C4
:101150000FF2DC7001F090FBDFF85857286DC007E4
:1011600048BF8C2000F19480DFF83807DFF8407723
:101170000021017101704178B1B93978A1B12178AC
:10118000122918BF0C290BD1627802F00702032A3A
:1011900002BF091911F8021C042904BF01210171C1
:1011A000A96F41F0010102E0A96F49084900A96750
:1011B000DFF8E8867A7898F80610DFF8FC96DFF812
:1011C000FC6692B1002242710129286D40F00400B2
:1011D000286506D14FF6FF7030604FF40070C9F8F3
:1011E0000000FFF78EFF82460CE0286D20F004001F
:1011F000012928654FF0000A04D100F043FA642069
:1012000000F066FEA86F20F00800A8671420E864CC
:10121000C5F848A0787838B198F80600002801BFD2
:10122000A86C00280120A864B8790028286D14BF94
:1012300040F0080020F008002865FFF71DFF18B1F6
:10124000306C40F008003064202028626C602C6014
:101250004FF4E06468687F30686004202862DFF83B
:101260006006046006E003F06FF918B103F074F94A
:1012700002F098FADFF84C06006800F0030003283B
:10128000F1D0C9F80040286D40F001002865002029
:10129000BDE8F087DFF83006002141608160016819
:1012A00021F0020101604FF00070DFF820160860A5
:1012B0000120DFF81C1608707047A0F13301DFF839
:1012C0001426914200D3704710B5DFF80446002180
:1012D000217000F082FB02E0012003F041F9207848
:1012E0000028F9D010BD2DE9F84FDFF8EC65DFF8E4
:1012F000B4557068716CDFF8BC7508401FFA80F84F
:10130000C6F804806878002840F0DD805FEAC87085
:10131000DFF8C845DFF8989553D5D7F800A0386CAA
:10132000796C41EA004199F80000A960002844D096
:101330009AF80100800640D5012028704FF48050B3
:101340003060306C40F480503064FFF795FEC0B3DD
:10135000192000F0BDFD4FF44040DFF884B5CBF814
:101360002800DBF800000090E06E40F40050E066DA
:10137000E06E40F48050E0669AF80010A8684901D9
:10138000B83101EB000AFFF77DFDAAEB0000000376
:10139000000BFFF792FFE06E80098001E06600A974
:1013A000E06E09880843E0660020CBF8280048F288
:1013B0006070E066E888206003E00022002002F010
:1013C00022FE5FEA08600CD5287830B10020287032
:1013D0000022A968402002F016FE306C20F48050F4
:1013E00030645FEA486008D5687830B9FFF74AFD95
:1013F00001460022892002F006FE5FEAC86054D54B
:10140000DFF898A4DFF8B0B49AF80400012804BF0C
:101410009AF8061001291FD100F084FE386F40F0C1
:101420000100386700208AF80600FFF72DFB0A202C
:1014300000F04EFD4FF6FF7070604FF000084FF463
:10144000E060CBF800000920B8660120B864B86FEE
:1014500040F00800B86718E0697999F80220491C43
:101460006971C9B2914215D2012808BF00F0CDF8C8
:10147000B86F20F00800B8671420B866FFF741FE87
:10148000B8644FF40070CBF80000386D40F00100F4
:1014900038650AE0012808BF00F0B7F8FFF7F2FC52
:1014A000014600228D2002F0AEFD5FEA08700AD5E9
:1014B000FFF7E2FD38B12068E88001202060706C01
:1014C00020F0080070645FEA88600AD52020386246
:1014D000687830B9FFF7D6FC01460022882002F078
:1014E00092FD687820B118F4407F04BF0120A870F5
:1014F000BDE8F18F70B582B00446FFF76BF8DFF8F6
:10150000EC03DFF8A453002101601521E9600921F3
:1015100001651F21416001210166DFF8CC030088CD
:10152000FEF7E1FEFFF7D8FA03F048FB00F03EF9C2
:10153000DFF86863308900F066F9708900F06BF9B4
:1015400002F030F9696841F04001696002F030F959
:10155000707800F000F9B07800F00DF9DFF8900332
:10156000007800F03AF9DFF88C0390F90000FFF7FB
:1015700070F8307800F057F996F9030000F05FF941
:10158000DFF8740300F07DF9BDF80000DFF86C139C
:10159000C0054CBF0020BDF800000870DFF86003F4
:1015A0000078FFF719F828B10FF2843040F2B73114
:1015B00001F062F9012C05D12868C00711D500F0AF
:1015C00024F80EE06CB92868C0070AD400F0AAFD20
:1015D000286840F001002860C82000F079FC002055
:1015E000B071F120DFF8D442206440F2F910E063DA
:1015F000FFF74AFA2868C00704D54FF6FF7020604D
:1016000000F06DF800F084FB73BD70B5DFF8F452A4
:10161000DFF888422E68A079012832D002F0C2F8A3
:1016200048F2D00129606A68520509D548F22202C1
:101630002A606A68D205F5D529606A685207F1D434
:10164000B6B2DFF87C222E604FF4E0611160DFF863
:1016500094120A6A520852000A620A68520852003A
:101660000A600A6842F002020A604A6A42F0010215
:101670004A620121A17102F09BF8BDE8704000F0C0
:1016800016BD70BD70B5854CA07938B300F04AFD29
:1016900002F088F80546DFF87012844E01200860D9
:1016A000306D40F0010030650020A071FFF7ECF9CB
:1016B00020203060306B40F002003063F06D40F06D
:1016C0000800F065284602F073F80A2000F000FCDC
:1016D0007A494FF6FF70086000F001F870BD4FF4D2
:1016E000E0607549086070476C488079704710B5B4
:1016F0006A4CA07928B140F2AD410FF2342001F0DC
:10170000BBF82079012804BFBDE81040FFF77DBF7A
:1017100010BD62480079704780B5022801DB0120C6
:1017200002BD5E4908718979884205D010B9FFF77A
:10173000A9FF01E0FFF769FF002002BD73480068C0
:10174000800200149A3801B211F1800FB8BF6FF017
:101750007F0040B2704710B5044602F023F86C4990
:101760000A68002C14BF42F0120222F012020A6032
:101770004A494C7040E038B5044602F013F805467B
:10178000FFF706FC40B962480168002C14BF41F025
:10179000800121F080010160404884702846BDE846
:1017A000324002F005B83D488078704759494A7880
:1017B0000B78594803EB022202608B78CA7803EB5E
:1017C000022242600B794A7903EB02228260CA79D5
:1017D000897901EB0221C160704710B5044601F020
:1017E000E1FF4B490A68002C14BF42F0200222F0AE
:1017F00020020A603E490C70BDE8104001F0D8BFDD
:101800002648008970472549088144490860704787
:101810002248408970472149488141490860704702
:1018200040480078704720490A68002814BF42F0F9
:10183000020222F002020A6018490870704738B5A7
:1018400004467F2C0AD1384800F01BF8BDF8000090
:10185000C00554BFBDF800406FF04A0401F0A2FF7C
:101860000546FFF795FB30B964B204F19A00800594
:101870002E49000C08600948C470284601F098FF02
:1018800031BD018802237F2200A8FFF73DB803483D
:1018900090F9030070470000DE2F00209223002003
:1018A00040A00040882D00208020004030200040D3
:1018B0006C2300201020004000E100E004A0004064
:1018C00080E100E0A820004010E000E004ED00E02E
:1018D000DF2F0020CDFF070000A000406410004073
:1018E000E410004060200040402300205C100040D5
:1018F000DD2F002034230020D8CD0108C12F002087
:10190000302300201C100040281000400C10004024
:1019100084200040FC2B00209820004094200040B0
:101920009020004090230020DACD010854100040A0
:101930007068792D636F6D6D6F6E2E63000000000F
:10194000FEF7C801DFF838145120086070472DE910
:10195000F041054603F046F9DFF82814B0FBF1F634
:101960004FF4F070B0FBF6F71E2D3FB201DBE81B21
:1019700004D5A8B2BDE8F04100F0AABA01F012FF08
:10198000804603F09BF9DFF80014DFF80024012003
:1019900048700721DFF8F80300F041F8E91B09B2AD
:1019A0007143C91C8908491EDFF8E853416000F003
:1019B000BDF8DFF8CC733C68386820F04000386030
:1019C00003F07EF93C602E6003F07EF903F084F9A9
:1019D0004046BDE8F04101F0EBBE38B5054603F0E6
:1019E00001F9DFF8A013B0FBF1F44FF4F070B0FB95
:1019F000F4F02D1A1E2D04DA98210FF2D83000F0E1
:101A00003BFFDFF88C03DFF88423072100F007F8A1
:101A100005FB04F1C91C8908491E416031BD016004
:101A20000021416081604FF0007111607047DFF864
:101A3000582301215170D0E7DFF85C03006800B93A
:101A400070472DE9F041DFF85453DFF85463002468
:101A50002C6034604FF4A040706041F29A08404618
:101A6000FFF775FF6F6803F0C5F8000142F21071CF
:101A7000B0FBF1F000F5C870C01B00B24FF4487124
:101A800090FBF1F000B20828A8BF072004DA10F19B
:101A9000080FB8BF6FF0070030604046FFF757FFF0
:101AA00008274046FFF753FF686804197F1EF8D1E6
:101AB00003F0A0F8211D4001C908B0FBF1F080B28D
:101AC0007060BDE8F081DFF8D002006800B97047AF
:101AD00038B5DFF8D05201206FF00F04A8602C60F9
:101AE0008020FFF734FFE868FF2802D8641C102C20
:101AF000F5DB31BD70B5DFF8B002016841F00101DE
:101B000001600121416001F04DFE0446DFF884527E
:101B100000F00CF85120DFF8681208602E6003F026
:101B2000D3F82046BDE8704001F042BE2E68286818
:101B300040084000286003F0C7B8002070472DE936
:101B4000F041954C904D226840F2DC51012A8846C4
:101B5000964E974F17DA0221B9803160B16901F0D2
:101B6000030103295BD02168002903D5B16941F045
:101B70000201B161FFF7E1FF5FEA00081BD12068B5
:101B800000284CD549E0B8884FF6FF74A0421DD11B
:101B90008848018802237F22381DFEF7B5FEB888E9
:101BA000A04204BF0220B880B069800703D4B069A6
:101BB00040F00200B0610120A870B88830600FFAD0
:101BC00088F0FFF734FF4046BDE8F081B3699B071A
:101BD000EDD5AB780BB10846F6E7B168B36811F004
:101BE000010103D10F2809D2401C06E09B0705D54F
:101BF0003B781BB1032801DB2018B880B888397006
:101C00000228BCBF0220B8803068B9888842D2D18F
:101C1000B06900F00300032801D0FFF76BFF00203C
:101C2000D2E72DE9F04780460024554D594E01F08A
:101C3000B9FD814603F042F84046FFF780FF08B93E
:101C400001240AE000F05DF8D5F800A000F0BCF82F
:101C5000C5F800A0376003F037F803F03DF84846B8
:101C600001F0A6FD002CE2D0BDE8F0870220D8E705
:101C700010B54748444C002141608160016821F063
:101C800002010160002060704FF000703F49086061
:101C9000A07838B10020A0700620FFF74EFF00F0BA
:101CA0002BF81CDBE078012814D1434801210160A6
:101CB00042490968C90748BF03200FD40221E170D7
:101CC000016C41F00101016404203D4908603D4977
:101CD000086010BDE078042801D10520E07010BD37
:101CE00080B52948407800281CBFBDE80140FFF7B7
:101CF000BFBFFFF7CFFA01BD274800680128704732
:101D0000244E3768306840084000306002F0DCBF85
:101D10002DE9F8431C4C207800282DD0207900288C
:101D20002AD1FFF7E9FF1FDA40F2F7310FF2A400E2
:101D300000F0A2FD18E001F035FD804602F0BEFF84
:101D4000E07805280BD0FFF7DBFF0D4DD5F80090AC
:101D500000F03AF8C5F80090376002F0B5FF02F0E5
:101D6000BBFF404601F024FDE0780528E3D10020C8
:101D7000A0700520FFF755FF00202070BDE8F1831B
:101D80000080004090D00300CF2F002004ED00E041
:101D900010E000E094ED00E090C901081040004020
:101DA0000C000040084000401C400040044000403F
:101DB00084230020D6CD010818A000400C4000402C
:101DC00080E200E000E100E0286820F040002860A8
:101DD00002F076BF636C6F636B732E6300000000CC
:101DE00010B5664C002000F014FD40F68C218842AE
:101DF0002068B4BF40F0080020F00800206010BD4B
:101E000010B504465E48018882B000F05CF89DF889
:101E100000109DF80100FF2902BFFF2804200021C7
:101E200004B1801C574A1368C0B20828A8BF072015
:101E300023F4607343EAC010106008291068A8BF3B
:101E40000721C00841EAC00010604F48047013BD6C
:101E500000B54E48018883B000F035F8BDF80000A9
:101E60004FF6FF7188420EBF4FF4E1600A2190FBEC
:101E7000F1F0ADF800004448007808B3404801880C
:101E800002237F2201A8FEF73FFD9DF80500BDF863
:101E90000030FF2808BF0420811CC9B20829A8BF50
:101EA0000721C1F12F0202EBD272C0F12F005210B4
:101EB00000FB0320C1F12F01B0FBF1F0ADF80000F1
:101EC000BDF800000EBD02237F2200A8FEF71CBD56
:101ED00070B52F4C2568064602F08CFE2D49B0FBEC
:101EE000F1F070432F303021B0FBF1F0032809D31B
:101EF000616D41F0010161652168491B0903090B0E
:101F00008142F9D370BD10B5040004D110BD4FF467
:101F10007A70FFF7DDFF2046441E80B20028F6D11C
:101F200010BD704738B50C4620B101280FD00328EA
:101F300020D021E0184D44B102F05CFE1749B0FBFF
:101F4000F1F0401EB0F5005F0CD2286012E04CB1F9
:101F500002F050FE610801EB4000B0FBF4F0B0F578
:101F6000003F01D3202032BD0D4900F001024A603C
:101F700040080860002032BD212032BD00BC004076
:101F8000CCCD010818000040C42F0020CECD0108A0
:101F90003820004090D00300100004E020A107008A
:101FA00068C8004038B50120FFF7C9FD0020FFF7E1
:101FB00027FFDFF87842206840F00800206002F038
:101FC00020FEFFF70DFF00F020F88D78DFF860327B
:101FD000DD600D8905604D89456000F01EF82068C0
:101FE00020F010002060FEF705F902F08EFF02F0ED
:101FF000CBFFFFF73BFE02F002FEBDE8314002F0EE
:102000001EBE40F2016003F05DB88A498A480A7832
:10201000C2604B78894AD360704788891060C8894C
:102020005060088A1860488A586040E0F0B50B6834
:10203000834C0F256468960005FA06F6344215D0E5
:10204000002606EB820724FA07F7FF070BD5B70037
:1020500005FA07FC23EA0C0330F812C005FA07F76B
:1020600007EA0C073B43761C042EEADB0B60F0BD4D
:10207000F0B50B68724CFF256468D600B5402C4261
:1020800013D00025012605EBC20724FA07F7FF0746
:1020900008D506FA05F7BB43175C06FA05FC0CEAFF
:1020A00007073B436D1C082DEDDB0B60F0BD10B541
:1020B0006348017801F0FD010170C90703D5614A49
:1020C0004FF4004111604068002827D000F069F803
:1020D000201DFFF7CDFF01225B49201DFFF7C8FF40
:1020E00002225A49201DFFF7C3FF0022524900F087
:1020F00016F80122564900F012F802224F4900F06A
:102100000EF80322534900F00AF80422484900F06F
:1021100006F804F11400BDE8104046E010BD04F1DB
:10212000140083E738B5464C207840F00200207058
:10213000C00707D543484FF40045056000F062F83A
:10214000454805606068002827D000F02AF820463E
:10215000FFF78EFF01223C492046FFF789FF02224C
:102160003A492046FFF784FF0022334900F016F871
:102170000122374900F012F80222304900F00EF82F
:102180000322344900F00AF80422294900F006F835
:1021900004F10800BDE8384007E031BD04F1080053
:1021A00044E7244C2D490022704705222C493DE785
:1021B0000320FEF757BC000010B503F08CF804466E
:1021C00003F08DF8C0B208B9012C07D1072C11D843
:1021D000DFE804F004100608080A0C0E002010BD09
:1021E000092010BD022010BD032010BD0B2010BD22
:1021F000062010BD44F0800010BD1148007800F0AA
:10220000010070470E4917480978C9070BD54FF4EC
:102210000041C1600821016013480068800900F096
:102220000100FEF7B8BE08210160704700BC004005
:1022300000B80040A422002000B0004000B40040DC
:102240008C26002080E100E00CB400400CB8004077
:1022500004B0004004B4004000E100E00CB00040D5
:1022600004B8004014A8004008B000402A490A6899
:10227000920992010A600A68104308604FF4004115
:1022800026480160002101606420FFF721BE2DE98E
:10229000F047234D204FD5F80090224C8046286807
:1022A00040F400402860386820F48050386020787E
:1022B00068B162781C48A17800EB820200EB8800CC
:1022C00012F82A2C10F82A0C891A461802E001206C
:1022D00020262070B0B2FFF7C9FF0FF2500A02E0CB
:1022E000B0B2FFF7C3FF386B042805D0386B400746
:1022F00054BF761E761CF3E7F86A38B184F8018083
:10230000A6701FFA89F02860BDE8F08740F221111D
:10231000504600F0B1FAE6E7D01000401810004037
:102320001C100040DA2F00208C070008616E616CE1
:102330006F6775652D76636F2E63000081014FF422
:10234000FE5289B20C20FDF78ABF2DE9F84F8F4C61
:10235000A56820680127ADB200264FF00A08B946EB
:102360001FFA80FA00F04FFAB0202063DFF820B2A5
:1023700008E016F1190FB8BF4FF00A08464436B20C
:102380007019A060DBF80000000702D559EA0700C9
:1023900028D00120FFF79CFDB9F1000F11D0AAF160
:1023A0000300874202DAF81C87B213E00AF5004006
:1023B000206057460621092000F0CEF94FF00009B1
:1023C0000BE0DBF80000000707D5042FA6BFF81EBE
:1023D00087B2002707F5004020601A2EC9DB6FF096
:1023E0000908CBE7A560C4F800A00820CBF80000DE
:1023F0006848006880B2BDE8F28F80B5624B6649DC
:102400001B784FF0FF326BB1002819BF4A60634858
:10241000486041F211100860614841880088BDE8B9
:10242000044092E7002819BF4A600A6048600860CB
:1024300000F0E9F9BDE804400621092000F0DDB90B
:1024400038B50120FFF7D9FF04460020FFF7D5FF7C
:1024500005460120FFF7D1FF4042001B00EB45007D
:1024600000B232BD2DE9FE4F4E4CDFF83C81A06A30
:10247000454EADF802002568D8F800B0307860B15C
:102480004FF6FF7200210820FDF7E2FEADF80000D4
:10249000C022C0210820FDF7E2FE4448DFF8109179
:1024A000007818B148F26070C9F80000708840F4F4
:1024B000404040F04C00C9F83C000220A0620120DE
:1024C000206040F24C40FFF703FD0120C8F80C00EB
:1024D000C8F800000020324F3880402078803078E3
:1024E00000B12020FFF72AFFFFF7AAFF8246402015
:1024F00038807F207880FFF721FFFFF7A1FF02904F
:10250000504601F0F8FFFE2101FB00F70298AAEB0C
:1025100000000190307860B1029801F0ECFF824633
:10252000019801F0E8FF80B207EB8A11B1FBF0F0EF
:1025300005E0019801F0DFFF80B2B7FBF0F080B258
:10254000401CC7031FFA8BF0C8F80000ADB2002092
:10255000C8F80C00022020602560BDF80200A062CF
:102560000020C9F83C00307830B1BDF800104FF6BB
:10257000FF720820FDF773FE40F24C40FFF7A8FC05
:10258000380CBDE8FE8F00008C230020C0100040F6
:1025900018A000400070004038100040EEEEFFFF31
:1025A000A02F002060200040281000403123002090
:1025B000D010004041003F2289B201E001463F2295
:1025C0000220FDF74CBE2DE9F04F564C564D95B00C
:1025D000E06CADF810004FF6FF782068ADF80E0003
:1025E0004246E86AADF80C0000210120FDF730FEFC
:1025F000ADF80A00424600210B20FDF729FEADF898
:1026000008004FF40040206000202861686148F213
:10261000020000F08BF84CF68C30E0644FF48052EE
:1026200048F2F000E86211460120FDF718FE42462C
:1026300000210B20FDF713FE0621062000F0DDF837
:10264000019000F085F800904CF69C30E06400208A
:10265000FFF7B0FF0621084600F07EF800260DF1D6
:10266000140BB0B2FFF7A6FF0621062000F074F8A5
:1026700000F08DF82BF81600761C202EF1DB00F010
:1026800086F81020FFF796FF00F062F80099019A93
:10269000401ABBF82010891A404301FB01094FF092
:1026A000100A112700F04EF800F052F800F043F83D
:1026B00006DB81461FFA87FA781C07B2202FF1DB70
:1026C000BAF1100F0ED10F2700F03CF800F040F8DF
:1026D00000F031F806DB81461FFA87FA781E07B250
:1026E000002FF1D5BDF81000E0644246BDF80E00A1
:1026F0002060BDF80C00E8620120BDF80A10FDF76B
:10270000AEFDBDF8081042460B20FDF7A8FD0120E4
:102710002861002000F00AF84FEA4A00C0B215B064
:10272000BDE8F08FC010004018100040286040F253
:102730004C40FFF7CDBB0099401A404306FB060012
:10274000484570473BF817000199461AB8B231E77F
:102750000621072000F051B870B505460E4602F07C
:10276000ADFA3D4C206C20F00800206402F0B4FA71
:1027700001F018F8310341EAC511384A41F001016E
:10278000116008212160BDE8704001F011B82DE909
:10279000F041334C334D304E25E002F08FFA324990
:1027A00004200860306C40F0080030642F6828680E
:1027B00040084000286002F087FAD4F800802068C2
:1027C00020F04000206002F07BFAC4F800802F6007
:1027D00002F07AFA306C254920F0080030640420B9
:1027E000086002F079FA30680007D6D5082030601A
:1027F0001F48006880B2BDE8F08180B5FFF7ACFFEC
:10280000BDE80140C3E71548016849084900016077
:102810007047F8B50746FFF71BFB0446394603200F
:10282000FFF7EBFF054639460120FFF7E6FF0646B6
:1028300039460020FFF7E1FF08490A6852085200B4
:102840000A60401B0004711BB0FBF1F060434000C4
:10285000000CF2BD0000000018A000400470004011
:102860000080004094ED00E000E100E080E200E044
:102870000070004042DE704738B504460D4602F055
:10288000C9F900F08FFF2946204602F05EFD2B4675
:1028900022460FF2CC11012002F0BFFF294620464C
:1028A000BDE83440E6E72DE9F84F6548654D01681D
:1028B0002E1D4FF4206A7165016AB165624909688D
:1028C000F165416A3166816A7166C16AB166016B00
:1028D000F166806B306796F8340040074CBFF76BA9
:1028E000B76BBB4602F08DFC014600223165F264F5
:1028F0008742DFF85881DFF85891564C24BFA4F185
:102900002003BB421DD357F8180F306457F8040F4B
:102910007064706DC005C00D062815D1306C484537
:1029200012D3404510D200884DF6426290420BD13E
:1029300005F18C006A68426040F2017A7268826038
:1029400002E03264726483464348814202D2014607
:1029500000E0091DA14203D20A68B2F1CD3FF8D0D0
:10296000601AB064182105F1780002F097FF00208A
:1029700003E0C0B205EB80029167A34523D254F86F
:10298000041D4945F9D34145F7D2CA07F5D50022C0
:1029900005EB82039B6F8B4203D0521CD2B2062AF6
:1029A000F6DB062AE9D1002814BF401E0520E0E727
:1029B000716F002205EB8203521CDF6F9F67052AAF
:1029C000F8DBC5F88C100146481EC9B20029EFD1CA
:1029D000706DC005C00D02280AD0032815D0042848
:1029E00016D0052817D0062818D00C281CD01EE0B9
:1029F0001A480168890748BF40F6021A1CD40068CB
:102A0000C00719D540F2025A16E040F6012A13E039
:102A100040F6022A10E040F6032A0DE0BAF5206FD6
:102A20000AD140F6042A07E040F6052A04E018B16E
:102A3000242838BF40F6072A5046BDE8F28F000030
:102A400004ED00E00000002000E300E040C40108C5
:102A500090010008E0210020980000201CA0004008
:102A60000D0A5B4153534552543A25703A25645D33
:102A70000D0A0000814233D210185118401E491E21
:102A800010E011F8013900F80139121F11F801396D
:102A900000F8013911F8013900F8013911F801394C
:102AA00000F8013992B2042AEBDA92B2002A1EBF72
:102AB00011F8013900F80139521EF6D1704711F8AA
:102AC000013B00F8013B121F11F8013B00F8013BEC
:102AD00011F8013B00F8013B11F8013B00F8013B04
:102AE00092B2042AEBDA92B2002A1EBF11F8013B1F
:102AF00000F8013B521EF6D17047130003D00A467E
:102B0000194602F0CFBE704710B500E0521E92B2D7
:102B10003AB110F8013B11F8014BA342F6D0181B53
:102B200010BD002010BD10B500E0521E92B242B19F
:102B300010F8013B11F8014BA342F6D0181B40B22C
:102B400010BD002010BD00002DE9F04F8BB0804675
:102B500026252622FF2100A8FFF7CFFFDFF8ACA033
:102B6000CA22FF215046FFF7C8FF0027284CDFF894
:102B7000A490294EB85D17F809B0395D401C00EBF0
:102B8000D070401001B11930401C00FB0BF22348FB
:102B900030F817100FF2880092B202F0B7FEBBF1C6
:102BA000010F1CBF2AF817505D447F1C262FE1DB64
:102BB0000FF288054FF4E04000F016F918B1C22179
:102BC0002846FFF759FE4FF4804000F00DF918B188
:102BD000C4212846FFF750FE4FF4805000F004F95E
:102BE00018B1C6212846FFF747FE262340F21C42B3
:102BF00040F206310FF2540002F088FE00A9404670
:102C000000F01FF90BB0BDE8F08F0000D8280020BD
:102C100024CA010874CA01084CCA0108D8C90108AD
:102C200043726561746F723A2030782532582C20D7
:102C3000576F7264733A2025640A000073696D2D22
:102C4000656570726F6D2E630000000053696D45FD
:102C50004520646174613A20256420776F72647343
:102C6000206F66202564206D61782C20746F6B6561
:102C70006E436F756E743A2025640A0010B5DFF854
:102C8000B04ADFF8B03A2488001B06E010B5DFF840
:102C9000A84ADFF8A03A24681B1B03EB400000237E
:102CA00004E030F8134021F813405B1C9342F8DB3A
:102CB000002010BD2DE9F04182B004460D461646B5
:102CC0000027DFF8708A01E0B81CC7B2B74217DAF4
:102CD0007819795D4078DFF8583A1B8801EB0020BD
:102CE000ADF80000012207EBD77004EB6000C01ABA
:102CF00000F09BFB0028E7D002F02BFE002000E054
:102D00000120BDE8F681F8B504460E4615460027B9
:102D10000DE000F019F8BDF8000004EB4701000ACF
:102D20004870761CBDF8000004F817007F1CB7EB54
:102D3000550FEEDBE80706D500F006F8BDF80000F9
:102D4000291901F8010CF1BD012200A9B0B295E7E3
:102D5000DFF8DC29DFF8DC191288801A01EB40016A
:102D6000022002F058BEDFF8D419DFF8D429415C04
:102D7000825CDFF8D039C05C10B102F5997292B272
:102D800041EAC21080B2704710B5DFF8BC39DFF8F5
:102D9000AC4903EB4002005D012801D1104610BD93
:102DA0001088081803EB400010BD38B50C46DFF85A
:102DB0009C190D782A462146FFF760FF20880028DD
:102DC0001CBF4FF6FF7188420AD0012000E0401C72
:102DD000C0B2A84206D234F8101022889142F6D030
:102DE000002032BD012032BDF0B5DFF84C1987B0AC
:102DF00008600C2200A90020FFF748FF00A9002569
:102E0000C88A8A890346040A01204FF6FF7631F802
:102E10001570BDF800C0BC4503D1B74218BF002FE4
:102E200000D100206D1C062DF1DBB21A944518BFAD
:102E30000020DBB2C4F1FF018B4218BF002007B0B5
:102E4000F0BD2DE9F24F0446DFF804690020307030
:102E500070809CB0DFF8FC080088ADF8020007A97C
:102E6000FFF7A3FF83460120707009A9DFF8E80887
:102E70000588DFF8E808B0F80080DFF8B408BDF88E
:102E800002A007883846FFF790FFB8B1BBF1000FEA
:102E90003CD0BDF81C10BDF824004FF6FE729142E4
:102EA00002D1012804D10CE0012908BF90422DD0A5
:102EB0000846BDF82410884228D202E0BBF1000F7A
:102EC00023D000207070029750460695CDF81080F0
:102ED0000122DFF8781891F800804044ADF8060030
:102EE00000A9BDF80600FFF7C9FEDFF874080088E6
:102EF00005904FF6FF79BDF80000000B404518BF64
:102F00000F2800D10CB3002516E0012470780128A9
:102F1000D9D13846CDF808A0CDF818800495D7E768
:102F2000059805FB00F4E01900F028FCBDF802004C
:102F3000201800F023FC6D1C4545F1DB01203070AA
:102F40004D2002F006FD0025FCE0BDF806500122F0
:102F500001A92846FFF792FEBDF80400C043C0B2A5
:102F6000ADF804006F1CDFF8FC070588BDF804000D
:102F7000A84218BF01244FF0000A20E0401CC1B253
:102F8000A94218D2C0B2DFF8E017BDF80E20834680
:102F900031F81B109142F1D1FFF7E5FE4FF6807139
:102FA0000840BDF80C104FF680721140884204BFF3
:102FB0001C980BF800A00AF101001FFA80FABDF876
:102FC0000400824507DA022203A9B8B2FFF756FED1
:102FD000BF1C0020D3E7002001E0401C80B2A842C3
:102FE00017DA1C99415C8142F7D0012411E02AF8DC
:102FF0001070BDF8060000EB4300401C00F0D2FA50
:10300000BDF80200C0F3C710401C00EBD07007EB06
:1030100060070498DFF830A7BFB2874211DA0122B7
:1030200000A93846FFF72AFEBDF80000484508D041
:10303000030A00F07F01BDF804007F1C834202DB1D
:10304000012400252DE0002001E0401C80B2A842B0
:10305000CFDA1C9A825C9A42F7D1C0B2FF28C8D05E
:10306000DFF8D826825C7F290CBF4FF0000C8C461D
:10307000944509DADFF8CCE6BDF800C010F80EE0A0
:10308000CCF3C01CF44501D00124B2E7012AAED034
:103090007F293AF8100008BF00210818A7E76D1C27
:1030A000ADB2DFF8C8060088854204DA3AF81500A8
:1030B0004845F4D1012477800498BDB285420ADAEC
:1030C000012200A92846FFF7D9FDBDF800006F1CBA
:1030D0004845F1D034E7002CFCD1029801220BA91D
:1030E00080B2FFF7CBFDBDF82C0048450DD105E0BF
:1030F000401C80B2202813DB2034A4B20699029A27
:10310000891A8C4205DB0120307000201DB0BDE81B
:10311000F08FA51820220BA9A8B2FFF7AFFD002061
:103120000BA931F810104945E2D0A8B2FFF710FE04
:10313000203CA4B2E0E70298059905FB010000F0ED
:103140001DFB6D1C4545F6DB01203070494600F043
:1031500043F818B100F02DF90028D6D10120D5E7A9
:103160002DE9F84504460F4616469846314638463E
:10317000FFF70AFEDFF8EC15B0F800A00988DFF8C9
:10318000C0558F420AD2DFF8B405385C7F2E08BFE5
:103190000026864202DA785D804503D040F2DA41AB
:1031A00000F0FCF9DFF89C05385C68B15146384600
:1031B00000F029FA795D012908BF20700AD00229A0
:1031C00014BF2060208005E0424651462046BDE8FD
:1031D000F84598E5BDE8F1852DE9F34FDFF8500596
:1031E000DFF868150488DFF868050978407883B04F
:1031F00000281ABFDFF85C05008820460D18DFF8AC
:1032000064050088ADF80800ADB2C043C0B200EB61
:10321000013000F55060ADF802002B1BDFF81405FB
:1032200000F0C6F96E1C0028B6B238D10025DFF8D0
:10323000387514E0E8B2FFF796FDADF80400331BD3
:1032400037F81500ADF806000222DFF8E80400F0B8
:10325000ABF8002823D1B61C6D1CB6B2ADB2BDF8D8
:1032600008008542E6DB002501E06D1CADB2BDF82B
:103270000800854280F293804FF0000A1CE0012292
:103280000DF102011FFA89F0FFF7F8FCBB19DFF816
:10329000A4041B1B09F1010900F08AF9002878D168
:1032A0007F1CFFB2B7EB1B6FE9DBDFF8C404285CBF
:1032B0008619B6B20AF1010ADFF8800415F800B0E9
:1032C0005FFA8AFADA45D0D25146E8B2FFF75CFDE0
:1032D0008046DFF87004B8F800902F5CF80140EAEF
:1032E0000520ADF80000BBF1010FBDF800000CBFD8
:1032F00040F07F004AEA0000ADF80000311BDFF823
:10330000340400EB4100711C89B201914FF6FF714A
:1033100089451EBFBDF80010BDF81020914218D19C
:103320009DF80C100029C5D0012200A902F0ACFBC9
:10333000019E70BBDFF80804A8F800602A5CDFF883
:10334000340450F82510B0B2FFF7B4FC0028ACD11B
:1033500022E0DFF8EC13695C491C01EBD1714FEA04
:10336000C15B012200A902F08FFB019E88B9002FEA
:10337000A8F8006095D04946E8B200F044F9019001
:10338000331BDFF8B0034FEA1B6200F00DF8002892
:103390008BD002F0DEFA002005B0BDE8F08FDFF838
:1033A000B00346800120F7E701A900EB430002F0DB
:1033B0006BBB2DE9F041DFF89C03DFF894530688DE
:1033C000DFF86C0304886878002882B012BF2046BA
:1033D00030462646012200A9FFF750FCBDF8000048
:1033E000DFF8508301280CBF4FF6FE70401EADF889
:1033F0000000DFF8580307783846471E58B1BFB2BF
:10340000B819001B012200F010F80028F4D002F0D7
:10341000A0FA002007E06978481E8041C00F68705C
:10342000002028700120BDE8F68100A908EB4000CB
:1034300002F02ABB2DE9FE4F0D46174604461E46F4
:103440004FF000094FF001083946FFF79DFCC549D0
:10345000098801908C420AD2B848205C7F2F08BFAF
:103460000027874203DAB648205C864203D040F248
:10347000FD5100F093F8B64F787820B1B648B0F817
:1034800000A0AB4803E0B548B0F800A0B1483978D7
:10349000008849B97988081AB74909888842B4BFB1
:1034A0004320442002F055FA01980188A548205C89
:1034B000F8B1204600F0A7F8012E08BF297803D004
:1034C000022E0CBF29882968814265D001980088A6
:1034D000401E00F067F8A648265C7888AAF1010132
:1034E000891B814201DB002835D1387858BB452043
:1034F00044E00291CB4620E002980BEBDB7300EB3B
:10350000630000F03EF90BEB05001BF80510407856
:1035100001EB0020711E8B4580B205D1BDF8001073
:10352000C9B2C0B2ADF80010BDF8001088420BF16E
:10353000020018BFC8465FFA80FBB345DCDBB8F178
:10354000000FC3D028E0BDF802100020FFF744FEB2
:1035500010B34FF0010978887949401C788080B217
:10356000625C2946FFF7A6FBB0B1714C7B882488CA
:1035700070485B1E1B1B00F01BF810B102F0E9F94C
:103580000AE0B9F1000F02D0FFF713FF20B1019953
:103590007888088030187880BDE8F78F0FF2EC103B
:1035A000FFF76AB901220DF1020180B2FFF766BB95
:1035B00001220DF1020100EB430002F065BA70B583
:1035C00082B0044600251926012200A9A0B2FFF707
:1035D00055FBBDF80000641C48B14FF47F41401A10
:1035E00002D0FF3806D007E0681C40B276BDAD1CA3
:1035F000761EE9D168B276BDBDF80000C0B200B950
:103600006D1CE843F1E738B50C46002100914C49A8
:10361000455C2A46214600A8FFF775FB681C00EBB5
:10362000D07004EB600080B2FFF7C9FF002848BFEC
:10363000C043009940B2401832BDF0B549490988ED
:103640000446414883B0254630F815608C4202D2CA
:103650003C48285C18B94FF4E761FFF79FFF3848F2
:103660002D5C681C00EBD07006EB6007B8B2FFF76A
:10367000A6FF322814D2C107BFB207EB60002C4F5F
:103680002C4B3F884CBF00214FF47F41ADF8041014
:10369000C01B012201A903EB400002F0F5F960B163
:1036A00031462046FFF7AFFF00902B46401C0090AC
:1036B0007F2200A92046FFF7BDFEF7BDF8B5244CD8
:1036C00020780027002830D1194805886078002824
:1036D0001ABF204806882E461C4807783846471EE1
:1036E00002281BDBFFB2B81900F04BF8BDF8000050
:1036F0000028F3D01A48008807FB006000F03EF86D
:103700000020ADF80000BB190A485B1B012200A98C
:10371000FFF74BFE48B102F01CF906E03046FFF718
:1037200017FBFFB20FB9012020703846F2BD000030
:10373000A0C9010800E00208182C002074CA010882
:103740004CCA010824CA0108D82800209CC90108D5
:103750009C2F0020A4C90108A2C90108A6C901081C
:103760009EC90108AAC90108D8C90108ACC9010845
:10377000B0C9010814CD0108A8C9010880B2FFF73B
:10378000E7BA012200A980B2FFF778BA73696D2DFC
:10379000656570726F6D2D696E7465726E616C2EE9
:1037A00063000000EFF31180602181F311887047FE
:1037B00080F3118870470000DFF88415002008703E
:1037C000FF21DFF88005017001717047F8B50446EC
:1037D00002F0A0F90546DFF87005DFF86875068885
:1037E000204602F0A8FAB0F5006F16D1204602F08C
:1037F000C6FA00F0BBFAFF280DD000F029FA2146E6
:10380000381D02F038FEDFF83805017881B10089F3
:10381000A9190E1A10E09320F2BDFF21384602F0DC
:1038200055FE052802DA21463846EAE73920F2BD7E
:103830000581314602F0ABFEB2B20321204602F010
:10384000F8F9032200F070F8204602F071FB002026
:10385000F2BDF8B50446DFF8EC040078FF2813D079
:10386000DFF8E8542968465C3746384602F078FAB3
:10387000014608222046FFF747F908B90120F2BDAA
:1038800028683F5CB742F0D10020F2BDF8B504468D
:1038900002F0FBF9000B00F00105204602F084FA6B
:1038A0000646204602F06FFAB0F5404F11D1002DC8
:1038B00036D03146002000F086F90446FF2C2FD088
:1038C000002102F05FFF58B300F0A3F900F02AF8DE
:1038D00026E0304603F074F900F048FA0446FF2C65
:1038E00001D10020F2BD01200021224603F096F90B
:1038F000DFF85C24D2E9006706430F43C2E90067A2
:1039000075B1DFF850341B6833F814304FF4FE649F
:10391000234205D0D2E9024520432943C2E90201EE
:103920000120F2BD40F080020521204602F08CB952
:1039300038B5044602F0FFF9B0F5006F0CBF012561
:103940000025204602F00CFA04462146284600F0E5
:103950003AF9FF2810D18DB1204603F031F900F07B
:1039600005FAFF280AD0DFF8EC13096831F81000D7
:103970004FF4FA61084201D0012032BD002032BD6F
:103980002DE9F04107460C46DFF8B85302F0D3F9B1
:10399000B0F5006F0CBF281D28460078FF2846D0E0
:1039A000DFF8A8130968405C0646B7423CD1FFF730
:1039B000F9FE80460521304602F04DF900F07F0007
:1039C000471EFAB20521304602F03EF9002C18BF1E
:1039D000312C01D0F8B200BBFFF7E4FE0746F0B28D
:1039E00002F0A9F9B0F5006FF1B205D1281D02F07F
:1039F0006DFD00F012F902E0284602F067FD38463E
:103A0000FFF7D6FE4046FFF7D3FE2146304603F0CF
:103A1000FBFF304602F09AFA04E000F0FEF8404660
:103A2000FFF7C6FE012003E0765C8642BDD1002090
:103A3000BDE8F08138B502F06DF8C14C21892081D4
:103A4000421A4FF6FF75ADF8005000A990B200F091
:103A500008F9BDF80000A84202D10020207031BD55
:103A60000146204602F093FD31BD00214FF6FF7064
:103A7000F7E02DE9F84FDFF8D892D9E900010029E5
:103A800008BF002800F0988000264FF00108B246D9
:103A900000270024FFF786FED9E90023844608EAC0
:103AA00002001AEA030108BF002817D06FEA0800D5
:103AB0006FEA0A0102400B40C9E90023D9E9025B21
:103AC000012708EA05021AEA0B0308BF002A05D0FD
:103AD00028400BEA0101C9E9020101246046FFF711
:103AE00067FE002F57D09B48006830F8160081070A
:103AF00051D59949096831F816702CB100F49871C4
:103B0000102908BF012500D0002594490978C9076C
:103B10000AD5934A1268002142F826109149096893
:103B2000725C42F0F0027254F4B180061CD5380A7F
:103B30008DF801008DF8007000A9012000F043F815
:103B40000446FF2C07D100F039F84FF6DF72114020
:103B500020F8161014E0002102F014FE80B100F0ED
:103B600058F8FFF7DFFE0BE085F00100044207D0B4
:103B700000F024F841F4006120F8161004F0ECFA8B
:103B800000953B461A226DA1032001F0C4FE294690
:103B9000384601F0D1FE761CF6B24FEA4A0040EA00
:103BA000D87A402E4FEA480806DAD9E90001002900
:103BB00008BF00287FF46CAFBDE8F18F654800684E
:103BC00030F8161070472DE9F04188465D4900280D
:103BD0001ABF091D022508250878FF2816D05B4E5C
:103BE0003168475C3C4600F014F800060AD42046D1
:103BF00002F0B6F801462A464046FEF785FF08B9AE
:103C0000204604E03068245CBC42ECD1FF20BDE8D3
:103C1000F0810521204602F01EB870B50021202059
:103C200004F02FFD47480079FF2810D0474C216849
:103C3000455C2E46304602F0A2F800F097F8FF28C7
:103C400001D000F005F82068365CAE42F2D170BDBC
:103C50004049096831F8102042F0200221F8102074
:103C600070472DE9F84F80460FF2FC00354E006892
:103C7000364F00908A46344600E0341DFFF792FD2F
:103C8000814606E0204602F00BFC294600A802F01F
:103C9000F2FB204602F04EFC40B9386821780D5CFA
:103CA0000321284601F0BCFF8045EBD2301D844241
:103CB00008BFFFF7B2FF4846FFF77AFD2078FF28DC
:103CC0001CD0396810F801904D460321284601F0B8
:103CD000A7FFA0EB080B1FFA8BF20321284601F087
:103CE000A8FFBAF800001FFA8BFB834588BF834604
:103CF000AAF800B038682D5C4D45E6D1301D8442ED
:103D0000BBD100A802F016FCA8B900A802F0C8FBBD
:103D1000044601F0C4FF00F0FAF8FFF77AFF00064E
:103D200003D44221204603F06FFE204602F00EF934
:103D300000F0EEF8E5E7BDE8F18F000042574200E1
:103D4000A02E0020B82300209A2200201C22002050
:103D5000D82300202C22002024220020682E0020BE
:103D60003022002078220020FF000000F8B50D4C22
:103D70002768060014D0FFF715FD0B4D21682A783F
:103D800021F8126037F8021BB142FBD1FFF710FD9A
:103D9000B81E2168401AC0052978000E884200D15B
:103DA000FF20F2BD242200202822002010B57348F5
:103DB000734C00682060606048220021FEF79DFE81
:103DC0007048216800780870002021680873216815
:103DD00048730B202168887303202168C8734FF64D
:103DE000FE71206801824FF6FF71418200F09CFB5A
:103DF0002168087600F098FB2168487600F094FB73
:103E000021688876604821680078C8765F49206814
:103E1000096881625E49097880F82C105D48216844
:103E20000068086310BD10B5FCF70CFC544C6168C9
:103E3000897B884203D00846FCF7FCFB50B9FCF7AD
:103E400004FC0146606890F90F00814204D0FCF741
:103E500000FC08B1012010BD6068008AFDF7D3FCAA
:103E60006068408AFDF7D7FC6068007B012818BFB6
:103E70000020FDF7B2FC002010BD10B5464C00201C
:103E8000207004F06BFB20B92046BDE8104002F022
:103E900073BB04F0F9FF08B105F025F863E080B5C5
:103EA000002000F015F828B1002000F005F808B156
:103EB000002002BDFF2002BD31480068407B02287F
:103EC0001CBF1128432801D10120704700207047F2
:103ED0002B480068007B012818BF022804D0032863
:103EE0001CBF0628072801D1012070470020704719
:103EF00000207047002070477047704700207047CF
:103F000001207047704700207047002070477047BD
:103F100070470020704780B50020FFF7CDFF20B12B
:103F20000020FFF7D5FF00B1012002BD80B50020C1
:103F3000FFF7C2FF30B112480068007B032801DAA6
:103F4000002002BDFF2002BD10B5040004D0E52111
:103F50000FF26800FEF790FC08480068482101FB5A
:103F6000040007494860BDE810405CE70448406829
:103F7000008A704702484068408A704750220020FB
:103F8000C82B0020952200209622002058220020D5
:103F90005C22002060220020B82B00207047002007
:103FA00070470020704702F022BC7047704701F054
:103FB000BBBC05F0D9B805F0B1B90000656D62650C
:103FC000722D6D756C74692D6E6574776F726B2DC3
:103FD000737475622E63000038B504460D460120E7
:103FE00005F06AFA5D48002D12BF00210178491CD6
:103FF00001705B4844705B48FDF7A3F8BDE83240B0
:10400000002005F059BA10B5002814463FD04028CA
:1040100023D0882818BF892840D08D282FD08F28FA
:1040200046D15148007804280DD144B14F490220AF
:10403000087040F60620BDE8104005F03FBAFDF7D5
:1040400056FB312030E0012001F064FCFDF74FFB0E
:10405000002C0CBF3120002026E040484449007865
:104060000978884204D2BDE8104000210120B3E75E
:10407000002001F04FFCFDF73AFB402014E0002047
:1040800001F048FC00212020FFF795FF0BE0012004
:1040900001F040FCFDF72BFB002005E0002001F0C3
:1040A00039FCFDF724FB8D20BDE8104002F04EBC2A
:1040B000BDE81040C9213CE02C480078022800D01F
:1040C000704780B52B480078042807D00C280ED103
:1040D00029480078022818BF7C2808D105F009FA81
:1040E000FDF705FBBDE80240002002F02FBC01BD3A
:1040F00038B50024FFF756FB05461C48007810B978
:10410000FCF72CFF04462846FFF752FB002C1CBF8F
:10411000BDE8314001F01BBC31BD80B5FFF7E8FFC1
:10412000BDE804404FF4A051144802F030BA40F208
:1041300005110FF25000FEF79FBB38B5104C2068F8
:10414000216C01EA0005ADB2680705D5206C20F0AE
:104150000400206404F0E8F8256031BDEE2F002053
:104160006C230020B02D002097230020A42D0020D8
:10417000D0230020E02F0020E12F00205C2F002022
:1041800008A000406D61632D656D3235302E6300EF
:1041900070B504460D461646FDF705FB38B160784C
:1041A000002E14BF40F0200000F0DF0060702946B0
:1041B000204601F04EFFFF2821D0974C0146201DDC
:1041C00002F059F9954D28882188401C288080B23A
:1041D00081420AD26888401C6880201D02F060F984
:1041E00001F0B4FE2888401E288020882988884253
:1041F000F3D3BDE870408A48007802F0ABBA70BDD6
:104200002DE9F04FA5B082460027FFF7CBFA834C8B
:104210002188491E2180FFF7CBFA504601F022FE8B
:1042200090F8009081784078009700EB01201FFA09
:1042300080F800F0D4F8A0F108020823D2B2514669
:1042400002A801F022FF02AD6878FFF760FE754812
:10425000007808B3606800281DD0E878FCF73DFFBF
:104260004946FCF741FF074695F9020000F1660553
:104270000020009009F10103DBB20022514604A89E
:1042800001F003FFFFF73EFE63686AB2394604A8F7
:104290009847FFF73DFE98E008F0070002282DD070
:1042A000FF208DF80400504601F0DCFD00F1010B09
:1042B000584601F025FD0446A9EB0400801E46B2D5
:1042C000002E1BD45FEA885003D508F007000328AE
:1042D00010D101A9584605F001FA002876D108F05E
:1042E000070001280BD19DF8040004EB0B0103F03B
:1042F000B1FE20B99DF8040001F028FE66E04A49AD
:104300009DF804000968475C4849096800F801A065
:1043100000F065F800F120019DF80400C9B201F039
:10432000A7FD9DF8040001F0B5FC00F00C00042886
:104330001CBFA619002470B280B20090631C9DF8C7
:1043400004009BB25246394602F064F8F1199DF818
:104350000400C9B201F045FF354968780978884200
:1043600004D3CD210FF2D000FEF786FA9DF80400A9
:1043700001F08BFC69788004800C40EA81319DF863
:10438000040089B201F083FCE878FCF7A6FE4946F8
:10439000FCF7AAFE02469DF80400032101F054FC3C
:1043A000A87800F166029DF80400D2B2042101F061
:1043B0004BFC9DF808209DF80400052101F044FC09
:1043C0009DF804A0504602F01DFB0127504601F065
:1043D000BDFDFFF79DFD384625B0BDE8F08F1248C2
:1043E00000681AF80000704710B50C4C618829B1BC
:1043F000C9B21D20FFF7DFFD002060800D4802F0EC
:104400004FF8FF2803D0FFF7FBFE0028F6D010BDC1
:10441000084802F08FB80000C8230020DC2E0020DE
:10442000CC2F0020892D00201022002018220020EF
:1044300054220020CC2300206D61632D72656365DA
:104440006976652E6300000038B504461B4D214691
:1044500000F03DF8E860211D00F039F8A86004F193
:10446000080100F034F8686004F10C0100F02FF846
:10447000286031BD7047F8B50446114D114E8020BB
:104480002860062030600720286030688007FCD54F
:10449000002704EB870100F01AF87F1C042FA862A4
:1044A000F7D330684007FCD500262A6B04EB860161
:1044B00000F00AF8761C042EF7D3F1BD3830004026
:1044C0000030004010A00040002002F084BB00201B
:1044D00002F08FBB70B504460D46FFF763F9064640
:1044E0002846FFF7B1FF2046FFF7C5FF3046BDE87D
:1044F0007040FFF75DB9002848BF40427047000098
:1045000081B209B94BF6EF610E4A1180000C08BF69
:104510004FF6CE20508070470288130448BF4A40AF
:10452000510001801046704738B5064C6221204684
:10453000FFF7F2FF054641F20B01A01CFFF7ECFF6D
:10454000684032BD04230020EFF3118060288041D1
:10455000C043C00F70470000002181F311887047ED
:104560002DE9F04FDFF8F84599B080466068189063
:10457000B8F1070F08BF4FF0030804D0B8F1080FD7
:1045800008BF4FF00208DFF8DC552868696840EA88
:104590000120A96840EA014000906868400703D5FF
:1045A000E06940F00200E0612868400703D5E06957
:1045B00040F00400E06100982969C840C00703D5B5
:1045C000E06940F00800E0610020DFF89065DFF866
:1045D00098953060B8F1010F00F06882C0F08E82CB
:1045E000B8F1030F1ED005D3B8F1040F40F0868256
:1045F000606017E0D9F84000C00703D5E06940F0DB
:104600004000E061D9F84000400703D5E06940F080
:104610002000E061D9F84000800703D5E06940F050
:104620001000E061FFF7BEF800F001FB8DF85C00C0
:104630004FF0000BD9F84000DFF830A5DFF83075F7
:10464000DFF830151690D9F844001590DAF84C00D0
:104650001490DAF850001390DAF854001290DAF857
:1046600058001190DFF8100500681090DFF8080579
:1046700040680F90DFF8000540690E90DFF8F804FD
:10468000406A0D9038680C9078680B90B8680A9072
:10469000F86809903869089078690790B8690690B9
:1046A000F8690590B86B0490DFF8D00400680968D9
:1046B000039102212160DFF8C81409688DF8041005
:1046C000DFF8C01409688DF80510DFF8BC1409681C
:1046D0008DF806104FF0FF316162DFF8B014096801
:1046E000C9040BD56968C90708D5E169C90705D5AB
:1046F000316841F480714FF0010B3160DFF88C14A8
:10470000096889040BD56968490608D5E169C907B4
:1047100005D5316841F480414FF0010B3160012132
:10472000DFF86824126852040ED5009AEB68DA406C
:10473000D20709D5E269D20706D53268EB6801FADB
:1047400003F31A438B463260DFF8402412681204E8
:1047500010D5009A2B69DA40D2070BD5E269D2074F
:1047600002D4E269120705D532682B698B4699405D
:1047700011433160DFF814140968C90308D5E169F1
:10478000090605D5F17841F008014FF0010BF170F1
:1047900000216A68D20748BF4FF480516A68520608
:1047A00048BF41F40051009AEB68DA40D20748BF95
:1047B00041F48041009A2B69DA40D20748BF41F4A6
:1047C0000041E269D20605D4E269920602D4E269A8
:1047D000520601D541F01001E269120648BF41F4CA
:1047E000803108400290A52000F018FA0120E06313
:1047F000E069A16B11B1616A0142FAD0616A0142BC
:1048000000F0F1800020E0634FF0010BF07840F001
:104810004000F07000F052FA0720C9F800000F20A5
:10482000CAF8000005F018F81898D3496060169887
:10483000C9F840001598C9F844001498CAF84C000B
:104840001398CAF850001298CAF854001198CAF880
:104850005800109808600F9848600E9848610D98AD
:104860004862C6490C9838600B9878600A98B8601E
:104870000998F86008983861079878610698B861D7
:104880000598F8610498B86302980860B9490398DC
:1048900008604FF0FF30BE490860B94800683070CA
:1048A000B84800687070B8480068B070626AE06923
:1048B00010402A69336801994B4000990B4001066A
:1048C000490E01F0010143EA81230106890E01F03E
:1048D000010143EA81030106C90E01F0010101FA59
:1048E00002F21A4300F47C7042EA00503060FEF796
:1048F00059FF00F0F1F9002020609DF85C0008B13C
:1049000000F07FF9F0789D490968C90304D5C0F328
:10491000C00109B120212162D9F84010890704D5CE
:10492000C10744BF0221C9F80C10D9F8401049074B
:1049300005D5C0F3400111B10421C9F80C10D9F814
:104940004010C90705D5C0F3800010B10120C9F897
:104950000C003068DAF84C1011F0E00F05D0C105FA
:1049600003D58A4A4FF480511160DAF8501011F0E3
:10497000E00F05D0410403D5844A4FF40051116083
:10498000DAF8541011F0E00F08D0E96820FA01F1CC
:10499000C90703D57D4A4FF480411160DAF85810F9
:1049A00011F0E00F07D02969C840C00703D5774947
:1049B0004FF400400860BBF1000F6ED175480068ED
:1049C00000056AD56068800767D5B8F1040F64D028
:1049D0006A480068C0063DD56C480068C00639D5F5
:1049E0000120307159E0BBF1000F7FF40FAF624836
:1049F000614980694008400088615E495D4880687F
:104A000040F00400886040F2072163480088884233
:104A100001BF614840884FF20F01884205D15E49CD
:104A20004CF23C3048804FF0010B012004F04EFF67
:104A3000BBF1000F05D058494FF20F0048804FF0EE
:104A4000000B5448534940680004B060896808432B
:104A5000B060E1E600F0CEF85049B0FBF1F04FF461
:104A60007A7148432F303021B0FBF1F000213171D1
:104A70004B494A6D42F001024A650A68454B454C74
:104A80005B68A46844EA0343B468A34205D10B6899
:104A90009B1A1B031B0B8342F0D3F07840F080007D
:104AA000F07019B0BDE8F04FFFF756BD00F0BFF849
:104AB0000446A52000F0B2F800F000F9FFF74CFD25
:104AC000384D2E68286840084000286000F0FCF847
:104AD000354FD7F80080386820F04000386000F08B
:104AE000EFF8C7F800802E6000F0EEF80CB100F08F
:104AF00088F819B0BDE8F04F00F0EEB819B0BDE885
:104B0000F04F40F2EB310FF2AC00FDF7B5BE154AA5
:104B100011F1010F07D0CBB21360C1F3072353602B
:104B2000C1F307419160002320490B601368002BFB
:104B300004BF5368002B01D192681AB10A6842F091
:104B400001020A600A6842F400720A600A6842F0D0
:104B500080020A6004E51649D9E70000A429002074
:104B60000400004008BC004014A0004014A800400D
:104B70000050004008ED00E00440004000E100E08B
:104B800008B0004008B4004008B8004000E200E06F
:104B900080E200E00C6000400000002090D00300A4
:104BA0003820004094ED00E00080004020000040EC
:104BB00000404000736C6565702E630003480188F7
:104BC000034808237F22FBF79FBE00BFDCCD01080E
:104BD000FC2B00202D480068C00701D42C487047EA
:104BE0002C48704780B5FFF7F5FF2B49096801B9DC
:104BF000400802BD80B5FFF7EDFF400802BDFCF79D
:104C000062BF2648012181604EF6BE21416001212C
:104C1000016070472249012008607047A52805D12E
:104C20001E484DF6AD6141600221016070471B488E
:104C30000068C00701D5012070470020704780B58B
:104C40001849194A1020086018491948007858B1C5
:104C500003280CBF00200120106040F651000860BE
:104C60000020FDF750F906E0022010604FF40060CC
:104C70000860FCF7E1FE07210E4801600021016495
:104C800010200D490860002002BD00001C400040BB
:104C9000001BB70000366E0120400040006000405D
:104CA0000860004080E100E0080000400C60004027
:104CB000B82F002014A0004000E100E072B6704759
:104CC00000BF30BF00BF7047BFF35F8FBFF34F8F90
:104CD000BFF36F8F7047000062B670479848016C51
:104CE00041F4C04141F0090101644FF6FF710160D8
:104CF000202094490860704770B515461E4601286B
:104D000035D113293CBF0FF26C20095C08096422DD
:104D1000504301F00F010B2903DA884006E00A2214
:104D200050430A46511ED2B20B2AF8DA014601203E
:104D3000FDF7F8F8E0B9300907280CBF0020022081
:104D4000012D08BF40F0180003D0022D08BF40F02D
:104D5000080006F00F010229A8BF40F004007A49BC
:104D6000886001200860FFF7B9FF002062BD2120A4
:104D700062BD012800D0704738B57348006801282B
:104D80000FD1FEF70FFD05467048016841F006019E
:104D90000160012000F09CF82846BDE82640FEF79F
:104DA00007BD23BD012804D16848016821F0060130
:104DB00001607047012802BF65488369012B07D055
:104DC00021207047C3685B07FCD511F8013B0360E5
:104DD00013465A1EDBB2002BF4D1C1684906FCD53C
:104DE0000020704710B50446FFF714FF012C03D1D3
:104DF000584800684006FBD510BD70472DE9F043C8
:104E00005549564B51F82020554C564D564EDFF81B
:104E1000408119E0B2F804E036F810707F1EBE45FC
:104E200026DAB2F800E096448EF806C0178835F806
:104E300010E007F1010C9CFBFEF70EFB17CCA2F86B
:104E400000C097887F1C9780D8F80C70BF073CD5AE
:104E5000D8F80C70D8F800C017F03807DAD05FEA3D
:104E6000077C08D45FEAC76C08D54FF0240E0BE02E
:104E70004FF0230E08E04FF0270E05E0BF064CBFB1
:104E80004FF0250E4FF0010E51F820C0075D37B9E5
:104E9000BCF8007023F8107000F804E0D4E733F891
:104EA0001070ACF8007000F804E0BCF80070BCF8BA
:104EB00002E077452FBFA7EB0E0E36F81090A9EB56
:104EC0000E0EBE44ACF804E0BEE7BDE8F0837047C8
:104ED00070B52649264A51F820101D4B0FE04C882A
:104EE0006418A4791C604C8832F81050641C94FB40
:104EF000F5F605FB16444C808C88641E8C808C88EB
:104F000014B1DC686407EAD470BD704738B50C4C46
:104F10000FE046F229702560054203D0A9B20120B6
:104F2000FFF76CFF41F6D60005421CBF0120FFF7DA
:104F3000CFFF2068216C11EA0005EAD131BD0000E5
:104F400008A8004000E100E054C8004048A8004024
:104F50003CC8004048C8004018230020BC2800205E
:104F6000B82800209058000894C9010808230020A0
:104F700088580008306090C0C1C2C394C495C55C15
:104F800096C6AC9798990D002DE9F041464C474ED6
:104F9000DFF81C81002020654FF4005535600220A9
:104FA0002060E56000202065206D40F060002065F5
:104FB0000C2000F01DF888F800004FF48047002016
:104FC0006065376004202060E7601620394908607A
:104FD00000206065606D40F060006065162000F0A4
:104FE00007F888F80100344805600760BDE8F081E3
:104FF0000C2802D0162804D00BE0304800680009C5
:1050000002E02F480068800900F0010080F00100F4
:1050100070470020704710B523484FF40051C1601D
:10502000022101600C20FFF7E3FF214C22780146AA
:105030008A4218BF21700DD1501E8041C00F2070D0
:105040000C20217804F0ECFE2178481E8041C00F2E
:1050500020702178BDE810400C2004F0E1BE10B5AE
:1050600011484FF48041C160042101601620FFF710
:10507000BFFF0F4C627801468A4218BF61700DD1A4
:10508000501E8041C00F60701620617804F0C8FE89
:105090006178481E8041C00F60706178BDE81040A3
:1050A000162004F0BDBE000014A8004080E100E01E
:1050B000AC2F002014BC004000E100E008B4004028
:1050C00008B8004010B50446FEF76CFB4E4930208E
:1050D00008604E4908604E49086010204D4908603C
:1050E0004FF20F01200A00284B4808BF2402048019
:1050F0004180BFF35F8F494800210160416048480B
:105100004849086010BD10B5474C2068C0060BD553
:10511000464941480A68C0F894204968C0F8901090
:1051200040F60620FFF7CEFF2068C00708D54049AB
:1051300003200870206C400840002064012020609B
:105140002068000703D5206C20F00800206410BD03
:1051500080B5002000F009F830B9BDE80440FC211A
:105160000FF2E000FDF788BB01BD2DE9F044314CA2
:1051700021680D1A15F01F0105D0002852BF6D1AC5
:10518000681A00F120052C48A5F12006A84224BF8A
:105190002A48864203D3EFF30880854201D30020DA
:1051A0002DE0FEF7FFFA82462548006810F001075F
:1051B00018BF04F069FB206801468D4206D2A84260
:1051C00024BFCD2100F80119F9D206E020380022D1
:1051D00001E000F8012B8842FBD32560304604F043
:1051E00058FBE22001E006F8010BAE42FBD30FB101
:1051F00004F032FB5046FEF7DBFA20682038BDE8A9
:10520000F0840C48006870473020004030C80040EF
:1052100030C0004010D00040000000201C40004082
:105220000400FA050CED00E018A0004030500040EA
:10523000D22F00207C23002080180020CC0D0020DD
:1052400094ED00E06D6963726F2D696E7465726E26
:10525000616C2E630000000030B522480168002018
:10526000002201249440CBB2234213D00FF28400D9
:105270001D4C30F812004CF23C324FF20F0306285E
:105280001DD16088984216D12188080A0B2812DAAD
:10529000084612E0521C92B2082AE2D31349088150
:1052A00040F201720889904204D11148D0E90023EC
:1052B000C1E9002330BD4FF4C0606280EEE740F2E8
:1052C0000725A84201BF618899422188A942E5D1FA
:1052D00062800846E2E705480089000A70470348F3
:1052E000008970472C00004000000020A825002005
:1052F00090000020010402040103010506000702DA
:105300000309010970B5AD4C204601F013F9D8B975
:10531000204601F0C5F8FF28044615D0A8490968C1
:10532000405C851EE9B2204601F04DF80646E9B220
:10533000204600F056FF2146304600F0F0F82046A7
:10534000BDE8704000F002BE70BD03460A469AA157
:105350000420FFE70CB480B502AA00F035F801BCC8
:105360005DF80CFB00B587B0FCF726FF0021059126
:1053700004910246562103910023002102910191DC
:105380000120904900910FF24C21FFF7E3FF8E4876
:105390008179C378827803910188029141790191E2
:1053A0000179009142200FF23821FFF7D3FF07B0B7
:1053B00000BD10B504462146804801F05CF8204647
:1053C000BDE8104000F0B4BD2DE9F04F85B00546B2
:1053D0000C469046002600F0A1FAF8B904F059FDF9
:1053E000E0B1012000F049FD8246BAF1FF0F15D06F
:1053F000002100F03DFD294601A804F050FD0546BE
:105400009CB900F087F830B9504604F0C0FD10B1E7
:10541000042000F07FFA504600F098FD05B0BDE88A
:10542000F08F8DF804200125641C20780028E8D036
:10543000A0F130010A2905D20A2101FB0600A0F1E2
:105440003006F1E700F066F80028E4D12278002564
:10545000422A01A80ED0442A1AD0462A25D0572A1B
:105460000DD0622A3AD0662A2AD06C2A25D0702A1A
:1054700026D0D6E758F8040B8DF80400D3E758F887
:10548000041B8DF8041002250904090E4170CBE7B6
:1054900058F8041B8DF804100A0A427004250A0CFF
:1054A0008270080E8DF80700BEE758F8041B5046BE
:1054B00000F057FE0028B7D0ADE758F8046BB3E70B
:1054C000012358F8041B662A08BF0223F2B2504693
:1054D00000F029FE002808BF0026ECE7384858F8FD
:1054E000041B00681AF80090CFB2FF2F9CD017F869
:1054F00000B00BEB0901C9B2504600F072FE002863
:1055000089D1CDF800B000233A464946504600F014
:1055100081FF89E72A4601A9504600F020BE2DE907
:10552000F043122885B080460D4609D03A281DD098
:105530004FF6FE71884204BF284600F0FCF934E0C3
:105540001F48224F00682E5C08E0284600F08AFCC5
:105550002146FFF752FC38682D5C203EFF2D24D0F9
:10556000F6B2212EACBF20243446EEE703F041FC16
:105570008146FCF74DF90646FBF767F80746FBF74F
:1055800061F80446FCF73CF902460E480FF2580158
:105590000390CDF8109023460D4800684088029093
:1055A000019600973B20FFF7D5FE2946404605B0FF
:1055B000BDE8F04300F0B4B957460000782300205E
:1055C00010220020FC2B0020B0CD01081822002062
:1055D000C82B0020424238704242424257424200A9
:1055E00042424242574200005742425757387042A7
:1055F000000000002DE9F0470446884691469A468F
:1056000000F031F9002801BF25460FF27820285C10
:10561000012823D1DFF8406256F82570FEF7C2F862
:105620000021B98039807980FEF7C2F806EB850049
:105630000669FEF7B7F8DFF824220021B180318037
:105640007180A954FEF7B4F8FFF75FFC53464A4651
:1056500041462046BDE8F047FFF74EBB2120BDE89C
:10566000F08710B50446FFF732FCDFF8EC0100EBE1
:1056700084000069808810BD2DE9F84381464C46BE
:10568000DFF8D40100EB840088460669484600F044
:10569000EAF808B1012037E0DFF8C051605D05EBA2
:1056A000440760B1B8887188884208D1FEF77AF85B
:1056B000665D00216155FEF77BF8304624E04846E0
:1056C000FFF705FCB088F0B1FEF76CF871880FF2B7
:1056D000C0128919897988F800104FF6FF7871880F
:1056E00032F8142000F03BF87180B1884144B18059
:1056F000FEF75EF8605D20B1B888404504BF308891
:10570000B880002000E02620BDE8F2830FF274117B
:10571000415C01290AD10FF264114F4A31F810108F
:1057200052F820008088081A80B270470020704725
:1057300010B50446FFF7EAFF0FF2401131F81410DC
:10574000081A80B210BD80880FF2301333F81110A0
:10575000891A884201DA0120704700207047491CED
:1057600091FBF2F302FB131170472DE9F84F8046CD
:1057700047460FF21010385C8B461646012838D188
:1057800035480FF2141950F827400FF2FC0A002593
:1057900014E0FEF707F8A18801B9012522881BF85B
:1057A000011B1219917121883AF81720FFF7D7FFD2
:1057B0002180A188491CA180FDF7FAFF3046461ED2
:1057C000C0B288B1002241462046FFF7BCFF002846
:1057D000DFD11DB14046FFF7CCFA002517F80900CC
:1057E0000028EFD1222005E04046FFF7C2FA002052
:1057F00000E00120BDE8F28F80B501460FF284027F
:105800008A5C012A05D1144A52F821108A88002A9C
:10581000FCD1FFF7E7FA002002BD0CB438B504460E
:105820000D46FFF7BFFA04AB2A4621460C4804F0A8
:1058300054FC0FF250012046415C012907D1064972
:1058400051F82000808810B12046FFF792FA32BC50
:1058500000205DF80CFB000008230020B828002081
:10586000B54D00087047042806DA0FF21801415CB4
:10587000481E8041C00F7047012070470000800023
:105880000000000000010000000080000000000097
:10589000000080000000000000010000002204F071
:1058A00031BD000062F30F2262F31F42401810F076
:1058B000030308D0C91A1FD3DB0748BF00F8012D26
:1058C00028BF20F8022D130030B4144615461039B5
:1058D00028BF20E93C00FAD8490728BF20E90C007E
:1058E00048BF40F8042D890028BF20F8022D48BF8A
:1058F00000F8012D30BC7047C91818BF00F8012D01
:10590000CB0728BF00F8012D704770470EB403B0D5
:105910007047704770470CB402B070470020704762
:105920000020704770477047704770477047704756
:105930007047704770477047704770470020704746
:105940007047704770477047704700207047FAF7FC
:105950003BBE70B504460FF28405433808D0401EA4
:10596000012809D9801E01280ED9C01F32D02AE093
:10597000BDE87040FDF7A2BE002600E00126FDF75D
:105980009DFE0028FAD12EBB134E307810BB0120AB
:1059900030700020FDF7D8F8452C11D00BD3472CE0
:1059A00001D003D307E040F6010001E040F6020019
:1059B000FFF788FB04E040F22F312846FCF75CFF3C
:1059C0000020307070BD2846BDE8704040F2413183
:1059D000FCF752BF70BD0000B52F0020656D6265F9
:1059E000722D636F6E66696775726174696F6E2E72
:1059F000630000004148018A40F6A772914202BF4D
:105A0000408A4FF47F41084203D1022801DB012084
:105A10007047002070472DE9F84F82468846FDF711
:105A2000C1FE374D2F6804462868400840002860B2
:105A3000FFF74AF90120DFF8C0B08BF80000FFF74C
:105A4000D9FF20B9FF210FF2BC00FCF715FF2B484E
:105A5000D0F8289041464AF48070C84706462F6027
:105A6000FFF732F92046FDF7A3FE00208BF8000077
:105A70000FF298040EB1305D04E041464AF4007024
:105A8000C847005DBDE8F28F2DE9F84F8046894692
:105A90004FEA420AFDF786FE194E37680546306820
:105AA000400840003060FFF70FF9FFF7A3FF28B967
:105AB0004FF4A1710FF24C00FCF7DEFE0F48D0F856
:105AC00024B00023524649464046D8470446376032
:105AD000FFF7FAF82846FDF76BFE0FF230050CB120
